{
  "contractName": "Storage",
  "abi": [
    {
      "inputs": [
        {
          "internalType": "string",
          "name": "hashFile",
          "type": "string"
        }
      ],
      "name": "setMap",
      "outputs": [],
      "stateMutability": "nonpayable",
      "type": "function"
    },
    {
      "inputs": [
        {
          "internalType": "string",
          "name": "hashFile",
          "type": "string"
        }
      ],
      "name": "existsHashFile",
      "outputs": [
        {
          "internalType": "string",
          "name": "",
          "type": "string"
        }
      ],
      "stateMutability": "view",
      "type": "function"
    }
  ],
  "bytecode": "0x608060405234801561001057600080fd5b50610693806100206000396000f3fe608060405234801561001057600080fd5b50600436106100365760003560e01c8063cdd1633c1461003b578063ce79d58114610057575b600080fd5b610055600480360381019061005091906101dd565b610087565b005b610071600480360381019061006c91906101dd565b6100bb565b60405161007e91906102c3565b60405180910390f35b81816000848460405161009b929190610324565b908152602001604051809103902091826100b692919061058d565b505050565b6060600083836040516100cf929190610324565b908152602001604051809103902080546100e8906103a6565b80601f0160208091040260200160405190810160405280929190818152602001828054610114906103a6565b80156101615780601f1061013657610100808354040283529160200191610161565b820191906000526020600020905b81548152906001019060200180831161014457829003601f168201915b5050505050905092915050565b600080fd5b600080fd5b600080fd5b600080fd5b600080fd5b60008083601f84011261019d5761019c610178565b5b8235905067ffffffffffffffff8111156101ba576101b961017d565b5b6020830191508360018202830111156101d6576101d5610182565b5b9250929050565b600080602083850312156101f4576101f361016e565b5b600083013567ffffffffffffffff81111561021257610211610173565b5b61021e85828601610187565b92509250509250929050565b600081519050919050565b600082825260208201905092915050565b60005b83811015610264578082015181840152602081019050610249565b83811115610273576000848401525b50505050565b6000601f19601f8301169050919050565b60006102958261022a565b61029f8185610235565b93506102af818560208601610246565b6102b881610279565b840191505092915050565b600060208201905081810360008301526102dd818461028a565b905092915050565b600081905092915050565b82818337600083830152505050565b600061030b83856102e5565b93506103188385846102f0565b82840190509392505050565b60006103318284866102ff565b91508190509392505050565b600082905092915050565b7f4e487b7100000000000000000000000000000000000000000000000000000000600052604160045260246000fd5b7f4e487b7100000000000000000000000000000000000000000000000000000000600052602260045260246000fd5b600060028204905060018216806103be57607f821691505b6020821081036103d1576103d0610377565b5b50919050565b60008190508160005260206000209050919050565b60006020601f8301049050919050565b600082821b905092915050565b6000600883026104397fffffffffffffffffffffffffffffffffffffffffffffffffffffffffffffffff826103fc565b61044386836103fc565b95508019841693508086168417925050509392505050565b6000819050919050565b6000819050919050565b600061048a6104856104808461045b565b610465565b61045b565b9050919050565b6000819050919050565b6104a48361046f565b6104b86104b082610491565b848454610409565b825550505050565b600090565b6104cd6104c0565b6104d881848461049b565b505050565b5b818110156104fc576104f16000826104c5565b6001810190506104de565b5050565b601f82111561054157610512816103d7565b61051b846103ec565b8101602085101561052a578190505b61053e610536856103ec565b8301826104dd565b50505b505050565b600082821c905092915050565b600061056460001984600802610546565b1980831691505092915050565b600061057d8383610553565b9150826002028217905092915050565b610597838361033d565b67ffffffffffffffff8111156105b0576105af610348565b5b6105ba82546103a6565b6105c5828285610500565b6000601f8311600181146105f457600084156105e2578287013590505b6105ec8582610571565b865550610654565b601f198416610602866103d7565b60005b8281101561062a57848901358255600182019150602085019450602081019050610605565b868310156106475784890135610643601f891682610553565b8355505b6001600288020188555050505b5050505050505056fea2646970667358221220552f3eb2ed432c4be8439a2694f51d9c1d3cf982903817a97191165a553c868064736f6c634300080f0033",
  "immutableReferences": {},
  "source": "// SPDX-License-Identifier: GPL-3.0\r\n\r\npragma solidity >=0.7.0 <0.9.0;\r\n\r\n/**\r\n *\r\n */\r\ncontract Storage {\r\n    //Key -> file hash, value -> Cid\r\n    mapping(string => string) private hashSet;\r\n\r\n    //Se introduce el hash del archivo con su ubicacin en ipfs. \r\n    function setMap(string calldata hashFile) public {\r\n        hashSet[hashFile] = hashFile;        \r\n    }\r\n\r\n    //Si devuelve nada, entonces el hash del archivo no est o ha sido modificado.\r\n    function existsHashFile(string calldata hashFile) public view returns(string memory) {\r\n        return hashSet[hashFile];\r\n    }\r\n}",
  "sourcePath": "C:\\Users\\sergio.DESKTOP-FKAUMTF\\OneDrive - Universidad de Oviedo\\University Of Oviedo\\TFG\\proyecto\\smartContract\\contracts\\Storage.sol",
  "compiler": {
    "name": "solc",
    "version": "0.8.15+commit.e14f2714.Emscripten.clang"
  },
  "schemaVersion": "3.4.8",
  "updatedAt": "2022-07-05T23:34:57.797Z",
  "devdoc": {
    "kind": "dev",
    "methods": {},
    "version": 1
  },
  "userdoc": {
    "kind": "user",
    "methods": {},
    "version": 1
  }
}